:0A00000005280000000000000028A1
:10000A006E30831603138F0007309C008F309F00D9
:10001A0086018601803083128600A201A301003086
:10002A002302031D1A28073022020318332802303C
:10003A00FB000430FC00BA30FD00FD0B2228FC0B4B
:10004A002228FB0B222800000608F000F00CF0130F
:10005A0070088600A20A0319A30A14280230FB00BA
:10006A000430FC00BA30FD00FD0B3928FC0B39289E
:10007A00FB0B3928000001308600A201A3010030E1
:10008A002302031D4A28073022020318632802307C
:10009A00FB000430FC00BA30FD00FD0B5228FC0BBB
:1000AA005228FB0B522800000608F000F00D7010D1
:1000BA0070088600A20A0319A30A44280230FB002A
:1000CA000430FC00BA30FD00FD0B6928FC0B6928DE
:0A00DA00FB0B692800000F287128B5
:04400E00EA39430048
:00000001FF
